:020000040800F2
:1000000000000320F10400086107000863070008EE
:10001000650700086707000869070008000000007E
:100020000000000000000000000000006B07000856
:100030006D070008000000006F0700087107000846
:100040004105000841050008410500084105000878
:100050004105000841050008750700084105000832
:100060004105000841050008410500084105000858
:100070004105000841050008410500084105000848
:100080004105000841050008410500084105000838
:100090004105000841050008410500084105000828
:1000A0004105000841050008410500084105000818
:1000B0004105000841050008410500084105000808
:1000C00041050008410500084105000841050008F8
:1000D00041050008410500084105000841050008E8
:1000E00041050008410500084105000841050008D8
:1000F00041050008410500084105000841050008C8
:1001000041050008410500084105000841050008B7
:1001100041050008410500084105000841050008A7
:100120004105000841050008410500084105000897
:100130004105000841050008410500084105000887
:100140004105000841050008410500084105000877
:100150004105000841050008410500084105000867
:100160004105000841050008410500084105000857
:100170004105000841050008410500080000000095
:100180004105000841050008410500084105000837
:100190004105000841050008410500084105000827
:0C01A00041050008410500084105000869
:1001AC0010B5054C237833B9044B13B10448AFF3A5
:1001BC0000800123237010BD4004002000000000CB
:1001CC004C11000808B5034B1BB103490348AFF3AE
:1001DC00008008BD00000000440400204C11000801
:1001EC0053B94AB9002908BF00281CBF4FF0FF3192
:1001FC004FF0FF3000F074B9ADF1080C6DE904CE8E
:10020C0000F006F8DDF804E0DDE9022304B07047E5
:10021C002DE9F047089D04468E46002B4DD18A42AD
:10022C00944669D9B2FA82F252B101FA02F3C2F1E0
:10023C00200120FA01F10CFA02FC41EA030E944071
:10024C004FEA1C48210CBEFBF8F61FFA8CF708FB92
:10025C0016E341EA034306FB07F199420AD91CEB6A
:10026C00030306F1FF3080F01F81994240F21C819C
:10027C00023E63445B1AA4B2B3FBF8F008FB1033E4
:10028C0044EA034400FB07F7A7420AD91CEB040419
:10029C0000F1FF3380F00A81A74240F207816444E9
:1002AC00023840EA0640E41B00261DB1D44000236E
:1002BC00C5E900433146BDE8F0878B4209D9002DD2
:1002CC0000F0EF800026C5E9000130463146BDE85C
:1002DC00F087B3FA83F6002E4AD18B4202D38242C6
:1002EC0000F2F980841A61EB030301209E46002D75
:1002FC00E0D0C5E9004EDDE702B9FFDEB2FA82F2CA
:10030C00002A40F09280A1EB0C014FEA1C471FFA27
:10031C008CFE0126200CB1FBF7F307FB131140EA0E
:10032C0001410EFB03F0884208D91CEB010103F1DB
:10033C00FF3802D2884200F2CB804346091AA4B29D
:10034C00B1FBF7F007FB101144EA01440EFB00FE71
:10035C00A64508D91CEB040400F1FF3102D2A645D6
:10036C0000F2BB800846A4EB0E0440EA03409CE775
:10037C00C6F12007B34022FA07FC4CEA030C20FA22
:10038C0007F401FA06F31C43F9404FEA1C4900FA42
:10039C0006F3B1FBF9F8200C1FFA8CFE09FB1811BF
:1003AC0040EA014108FB0EF0884202FA06F20BD932
:1003BC001CEB010108F1FF3A80F08880884240F282
:1003CC008580A8F102086144091AA4B2B1FBF9F0C6
:1003DC0009FB101144EA014100FB0EFE8E4508D9C1
:1003EC001CEB010100F1FF346CD28E456AD9023846
:1003FC00614440EA0840A0FB0294A1EB0E01A1422B
:10040C00C846A64656D353D05DB1B3EB080261EB98
:10041C000E0101FA07F722FA06F3F1401F43C5E972
:10042C00007100263146BDE8F087C2F12003D840A8
:10043C000CFA02FC21FA03F3914001434FEA1C47EA
:10044C001FFA8CFEB3FBF7F007FB10360B0C43EADC
:10045C00064300FB0EF69E4204FA02F408D91CEB8C
:10046C00030300F1FF382FD29E422DD9023863448A
:10047C009B1B89B2B3FBF7F607FB163341EA03412A
:10048C0006FB0EF38B4208D91CEB010106F1FF3879
:10049C0016D28B4214D9023E6144C91A46EA004670
:1004AC0038E72E46284605E70646E3E61846F8E602
:1004BC004B45A9D2B9EB020864EB0C0E0138A3E74B
:1004CC004646EAE7204694E74046D1E7D0467BE72C
:1004DC00023B614432E7304609E76444023842E7A4
:1004EC00704700BFDFF834D00D480E490E4A002388
:1004FC0002E0D458C4500433C4188C42F9D30B4ACC
:10050C000B4C002301E013600432A242FBD300F039
:10051C002FF900F011F800F0A3F870470000032049
:10052C00000000204004002090110008400400202E
:10053C0064040020FEE7000070B50D4E0D4D761BD7
:10054C00B61006D0002455F8043B01349847A64257
:10055C00F9D1094E094D761B00F0F2FDB61006D00C
:10056C00002455F8043B01349847A642F9D170BDDC
:10057C0084110008841100088C11000884110008F3
:10058C00024B13B1024800F005B8704700000000A0
:10059C00AD050008002301461A46184600F01AB8AB
:1005AC0038B5084B084D5B1B9C1007D0043B1D4411
:1005BC00013C55F804399847002CF9D1BDE8384076
:1005CC0000F0C4BD901100088C110008704700BFEA
:1005DC00704700BF2DE9F047DFF880A00646DAF837
:1005EC00000098460F469146FFF7F0FF1A4B1B6828
:1005FC00D3F8484124B365681F2D26DC5EB96B1C0B
:10060C000235DAF80000636044F82570FFF7E0FF6C
:10061C000020BDE8F08704EB85010123C1F8889028
:10062C00D4F88821AB401A43022EC4F88821C1F8B3
:10063C000881E4D1D4F88C211343C4F88C31DEE763
:10064C0003F5A674C3F84841D5E7DAF80000FFF7C4
:10065C00BFFF4FF0FF30DCE76411000828040020D6
:10066C0080B594B000F04AFB002000F013FD01208F
:10067C0000F010FD314D002201922B6C43F08053A1
:10068C002B642B6C03F080530193019B2C4B029237
:10069C001A6842F440421A601B6803F44043029308
:1006AC00029B01274FF48033CDE9087302264FF4E7
:1006BC008003CDE90E6308214FF4B473CDE9101318
:1006CC0008A807231296139300F078F8044618B183
:1006DC00384600F01BFDFEE700F0A2FC0F23CDE92D
:1006EC0003364FF4A0524FF48053052103A8059410
:1006FC00CDE9062300F040FA044618B1384600F064
:10070C0005FDFEE703902B6B43F001032B632B6B72
:10071C00089703F001030393039B4FF40413CDE9F3
:10072C00093008A9074800F07BFB06202246314619
:10073C0000F022FB062000F051FBFEE700380240DF
:10074C000070004000000240012802D1002000F09F
:10075C00EBBC70477047FEE7FEE7FEE7FEE770472D
:10076C007047704700F0E4BA012000F04DBC000067
:10077C000F49D1F8883043F47003C1F888300D4B21
:10078C001A68002042F001021A6098601A6822F080
:10079C00847222F480321A60074A5A601A6822F472
:1007AC0080221A60D8604FF000638B60704700BFE6
:1007BC0000ED00E000380240103000242DE9F34138
:1007CC00044640B30368DD0710D4236898075ED451
:1007DC0023681A0700F1A08023685B0700F1C08032
:1007EC00A069002840F0288100202BE08F4B9A68EC
:1007FC0002F00C02042A07D09A6802F00C02082AB4
:10080C000BD15A68510208D5884B1B689A03DCD56A
:10081C006368002BD9D1012014E06268B2F5803FE7
:10082C0013D11A6842F480321A6000F08DFA7F4EB0
:10083C00054633689B03C8D400F086FA401B642835
:10084C00F7D9032002B0BDE8F081784DB2F5A02FA6
:10085C002B6807D143F480232B602B6843F480333F
:10086C002B60E2E723F480332B602B6823F4802386
:10087C002B60002AD9D100F067FA06462B689F033B
:10088C00A3D500F061FA801B6428F7D9D9E7674B30
:10089C009A6812F00C0F07D09A6802F00C02082A22
:1008AC0011D15B685E020ED4604A13689D0702D5B5
:1008BC00E368012BAFD11368216923F0F80343EAF5
:1008CC00C103136084E7E268594BB2B101221A608C
:1008DC0000F03AFA554D06462B68980707D52B6859
:1008EC00226923F0F80343EAC2032B6070E700F09F
:1008FC002BFA801B0228EFD9A3E71A6000F024FA28
:10090C004A4E0546336899077FF562AF00F01CFA32
:10091C00401B0228F6D994E76269454B82B101224B
:10092C00C3F8802E00F010FA404E0546736F9F07F7
:10093C003FF552AF00F008FA401B0228F6D980E7C9
:10094C00C3F8802E00F000FA384E0546736F9807F6
:10095C007FF542AF00F0F8F9401B0228F6D970E79A
:10096C00324B1A6C12F0805228D101921A6C42F060
:10097C0080521A641B6C03F080530193019B012776
:10098C002C4D2B68D9051BD5A368284D012B27D1DD
:10099C002B6F43F001032B6700F0D6F9234E05466D
:1009AC0041F28838336F9B0739D5002F3FF418AFCD
:1009BC001E4A136C23F08053136411E70027DFE702
:1009CC002B6843F480732B6000F0BEF906462B684D
:1009DC00DA05D9D400F0B8F9801B0228F7D930E732
:1009EC00052B04D12B6F43F004032B67D0E72A6F40
:1009FC0022F001022A672A6F22F004022A67002BD8
:100A0C00CAD100F0A1F941F2883806462B6F98073D
:100A1C00CBD500F099F9801B4045F7D911E700F0D0
:100A2C0093F9401B4045BDD90BE700BF003802408D
:100A3C000000474200700040364DAB6803F00C03D9
:100A4C00082B3DD0344B002202281A662BD100F023
:100A5C007BF906462B6899011FD4D4E9073213435E
:100A6C00626A43EA8213E26A43EA0263A26A5208A8
:100A7C00013A43EA02436B60274B264D01221A666A
:100A8C0000F062F904462B689A013FF5ADAE00F018
:100A9C005BF9001B0228F6D9D3E600F055F9801B50
:100AAC000228D7D9CDE600F04FF904462B689B01FC
:100ABC007FF59AAE00F048F9001B0228F6D9C0E683
:100ACC0001283FF4BFAE6B68E26903F480019142E8
:100ADC007FF4A1AE216A03F03F028A427FF49BAE01
:100AEC00616A47F6C0721A40B2EB811F7FF493AE75
:100AFC00A26A520803F44031013AB1EB024F7FF481
:100B0C008AAEE26A03F07063B3EB026F3FF46CAE33
:100B1C0081E600BF0038024000004742134908B587
:100B2C008B6803F00C03042B1CD0082B1CD14A68D7
:100B3C004B68496813F4800314BF0D480D48C1F38A
:100B4C00881118BF002302F03F02A1FB0001FFF740
:100B5C0047FB064B5B68C3F3014301335B00B0FBFF
:100B6C00F3F008BD0248FCE70248FAE700380240FF
:100B7C0000127A000024F4002DE9F0410D460446E1
:100B8C0010B90120BDE8F081444B1A6802F00F0245
:100B9C008A4228D3226897072DD4D00741D43F4BE3
:100BAC001A6802F00F02AA4266D8226851076CD468
:100BBC00130707D53A4A2169936823F4604343EA43
:100BCC00C1039360FFF7AAFF354B364A9B68C3F30A
:100BDC000313D35CD840344B1860344B186800F0C6
:100BEC0069F80020CEE7CAB21A701B6803F00F0335
:100BFC008B42C6D1CEE72A4B12F0040F1EBF996868
:100C0C0041F4E0519960160742BF996841F4604184
:100C1C0099602349A0688B6823F0F00303438B6031
:100C2C00BBE762681E4B012A1CD11B6813F4003F02
:100C3C00A7D01B4EB36823F003031343B36000F03B
:100C4C0083F841F288380746B368626803F00C03F6
:100C5C00B3EB820FA3D000F077F8C01B4045F3D95B
:100C6C0003208FE7911E01291B6802D813F0007F27
:100C7C00DEE713F0020FDBE7EAB21A701B6803F031
:100C8C000F03AB427FF47DAF8FE70549E0688B68BB
:100C9C0023F4E05303438B608AE700BF003C02401F
:100CAC0000380240681100082C0400203404002095
:100CBC007047000038B50E4A0E4B054618784FF4B5
:100CCC007A73B3FBF0F31068B0FBF3F000F094F818
:100CDC00044658B90F2D09D8024629464FF0FF306B
:100CEC0000F04AF8044B20461D6038BD0120FCE79B
:100CFC002C040020300400203404002008B50B4BD9
:100D0C001A6842F400721A601A6842F480621A601F
:100D1C001A6842F480721A60032000F01BF80F204E
:100D2C00FFF7C8FFFFF7C4FF002008BD003C0240DE
:100D3C00034A044B11681B780B441360704700BFC7
:100D4C006004002030040020014B1868704700BF7D
:100D5C00600400200749CA6822F4E062030212040E
:100D6C0003F4E063120C134343F0BF6343F400330A
:100D7C00CB60704700ED00E0164B30B5DC68C4F377
:100D8C000224C4F10705231D042D28BF0425062BBE
:100D9C004FF0FF338CBF033C002403FA05F521EA26
:100DAC000501A34022EA0302A140002841EA020304
:100DBC00ACBF00F16040084A4FEA0313B8BF00F023
:100DCC000F00DBB2AABF00F56140135480F800336A
:100DDC0030BD00BF00ED00E014ED00E0002808DBA2
:100DEC004209012300F01F0003FA00F0014B43F805
:100DFC002200704700E100E00138B0F1807F0BD297
:100E0C004FF0E023054A5861F02182F823100020AE
:100E1C00072298611A6170470120704700ED00E0CD
:100E2C002DE9F74FDFF8C0916D4A00230D680124BE
:100E3C009C4004EA050CAC4340F0B9804D6805F0C9
:100E4C0003044FEA43080326671E06FA08F6012F2F
:100E5C006FEA060634D8876807EA060ECF6807FAE9
:100E6C0008F747EA0E078760476827EA0C0EC5F3B8
:100E7C0000179F4047EA0E074760C76807EA060E4F
:100E8C008F6807FA08F747EA0E07022CC76019D1DA
:100E9C004FEAD30A00EB8A0A03F0070BDAF820704A
:100EAC004FEA8B0B4FF00F0E0EFA0BFE27EA0E0ECD
:100EBC000F6907FA0BF747EA0E07CAF8207001E032
:100ECC00032CDAD1076804FA08F43E40264315F4E3
:100EDC00403F06606BD04FF0000ACDF804A0D9F863
:100EEC004460404C46F48046C9F84460D9F84460EC
:100EFC0006F480460196019E23F0030606F1804617
:100F0C0006F59C3603F0030ED6F808804FEA8E0ED9
:100F1C000F2707FA0EF7A04228EA07074ED004F570
:100F2C008064A0424CD004F58064A0424AD004F501
:100F3C008064A04248D004F58064A04246D004F5F9
:100F4C008064A04244D004F58064A04242D004F5F1
:100F5C008064A04240D004F58064A0423ED004F5E9
:100F6C008064A0420CBF09240A2404FA0EF43C430A
:100F7C00B46094686FEA0C06EF0254BF34404CEA3C
:100F8C0004049460D468AF0254BF34404CEA0404A7
:100F9C00D4605468AF0354BF34404CEA040454602A
:100FAC001468ED0354BF34404CEA0404146001335C
:100FBC00102B7FF43BAF03B0BDE8F08F5446D4E761
:100FCC000124D2E70224D0E70324CEE70424CCE7A3
:100FDC000524CAE70624C8E70724C6E70824C4E7A3
:100FEC00003C014000000240003802400AB181611F
:100FFC0070470904FBE7436901EA030221EA030194
:10100C0041EA024181617047044A5169014208B5C5
:10101C0002D05061FFF798FB08BD00BF003C0140B7
:10102C0037B500230193184B184D1A6C42F08052BF
:10103C001A641B6C03F080530193019B144B012227
:10104C001A64FFF781FE04466B68DA030BD5104B6C
:10105C000E4D01225A64FFF777FE04466B689B0322
:10106C000AD5002006E0FFF76FFE001BB0F57A7F73
:10107C00EAD9032003B030BDFFF766FE001BB0F5C4
:10108C007A7FEBD9F5E700BF0038024000700040D2
:10109C0000000E4270B5044688B008BB184B019096
:1010AC001A6B42F040021A631B6B03F0400301936E
:1010BC00019B144B144D33F8146055F8240003961F
:1010CC000123CDE9043303A902230693FFF7A8FEFD
:1010DC0055F8240000223146FFF788FF08B070BD98
:1010EC000128E6D100230293054B1A6B42F0400213
:1010FC001A631B6B03F040030293029BD9E700BFFA
:10110C00003802407811000838040020044B33F8F2
:10111C001010044B012253F82000FFF767BF00BFEB
:10112C007811000838040020034B33F81010034BDF
:10113C0053F82000FFF75FBF781100083804002037
:10114C00F8B500BFF8BC08BC9E467047F8B500BFA8
:08115C00F8BC08BC9E46704778
:101164000000002000000000000000000102030451
:081174000607080900200040F5
:08117C00A0F0FF7F010000005C
:081184008D050008D1010008EF
:04118C00AD010008A9
:1011900000000000EC02002054030020BC030020EB
:1011A000000000000000000000000000000000003F
:1011B000000000000000000000000000000000002F
:1011C000000000000000000000000000000000001F
:1011D000000000000000000000000000000000000F
:1011E00000000000000000000000000000000000FF
:1011F00000000000000000000000000000000000EF
:1012000000000000000000000000000000000000DE
:1012100000000000000000000000000000000000CE
:1012200000000000000000000000000000000000BE
:1012300000000000000000000100000000000000AD
:101240000E33CDAB34126DE6ECDE05000B00000072
:10125000000000000000000000000000000000008E
:10126000000000000000000000000000000000007E
:10127000000000000000000000000000000000006E
:10128000000000000000000000000000000000005E
:1015B00000000000000000005C0400200024F40093
:1015C0000100000010000000001802400018024056
:04000005080004F1FA
:00000001FF
